{
  "contractName": "Purchase",
  "abi": [
    {
      "constant": true,
      "inputs": [],
      "name": "count",
      "outputs": [
        {
          "name": "",
          "type": "uint256"
        }
      ],
      "payable": false,
      "stateMutability": "view",
      "type": "function",
      "signature": "0x06661abd"
    },
    {
      "constant": true,
      "inputs": [],
      "name": "name",
      "outputs": [
        {
          "name": "",
          "type": "string"
        }
      ],
      "payable": false,
      "stateMutability": "view",
      "type": "function",
      "signature": "0x06fdde03"
    },
    {
      "constant": true,
      "inputs": [],
      "name": "seller",
      "outputs": [
        {
          "name": "",
          "type": "address"
        }
      ],
      "payable": false,
      "stateMutability": "view",
      "type": "function",
      "signature": "0x08551a53"
    },
    {
      "constant": true,
      "inputs": [],
      "name": "value",
      "outputs": [
        {
          "name": "",
          "type": "uint256"
        }
      ],
      "payable": false,
      "stateMutability": "view",
      "type": "function",
      "signature": "0x3fa4f245"
    },
    {
      "constant": true,
      "inputs": [],
      "name": "buyer",
      "outputs": [
        {
          "name": "",
          "type": "address"
        }
      ],
      "payable": false,
      "stateMutability": "view",
      "type": "function",
      "signature": "0x7150d8ae"
    },
    {
      "constant": true,
      "inputs": [],
      "name": "price",
      "outputs": [
        {
          "name": "",
          "type": "uint256"
        }
      ],
      "payable": false,
      "stateMutability": "view",
      "type": "function",
      "signature": "0xa035b1fe"
    },
    {
      "constant": true,
      "inputs": [],
      "name": "state",
      "outputs": [
        {
          "name": "",
          "type": "uint8"
        }
      ],
      "payable": false,
      "stateMutability": "view",
      "type": "function",
      "signature": "0xc19d93fb"
    },
    {
      "constant": false,
      "inputs": [
        {
          "name": "seller_",
          "type": "address"
        },
        {
          "name": "buyer_",
          "type": "address"
        },
        {
          "name": "name_",
          "type": "string"
        },
        {
          "name": "count_",
          "type": "uint256"
        },
        {
          "name": "price_",
          "type": "uint256"
        }
      ],
      "name": "setPurchase",
      "outputs": [],
      "payable": false,
      "stateMutability": "nonpayable",
      "type": "function",
      "signature": "0x69ded70f"
    },
    {
      "constant": false,
      "inputs": [
        {
          "name": "buyer_",
          "type": "address"
        },
        {
          "name": "value_",
          "type": "uint256"
        }
      ],
      "name": "confirmPurchase",
      "outputs": [],
      "payable": true,
      "stateMutability": "payable",
      "type": "function",
      "signature": "0x9f3a3d21"
    },
    {
      "constant": false,
      "inputs": [
        {
          "name": "buyer_",
          "type": "address"
        }
      ],
      "name": "confirmReceived",
      "outputs": [],
      "payable": false,
      "stateMutability": "nonpayable",
      "type": "function",
      "signature": "0x80889348"
    },
    {
      "constant": true,
      "inputs": [],
      "name": "getSeller",
      "outputs": [
        {
          "name": "",
          "type": "address"
        }
      ],
      "payable": false,
      "stateMutability": "view",
      "type": "function",
      "signature": "0xdbd0e1b6"
    },
    {
      "constant": true,
      "inputs": [],
      "name": "getBuyer",
      "outputs": [
        {
          "name": "",
          "type": "address"
        }
      ],
      "payable": false,
      "stateMutability": "view",
      "type": "function",
      "signature": "0x603daf9a"
    },
    {
      "constant": true,
      "inputs": [],
      "name": "getName",
      "outputs": [
        {
          "name": "",
          "type": "string"
        }
      ],
      "payable": false,
      "stateMutability": "view",
      "type": "function",
      "signature": "0x17d7de7c"
    },
    {
      "constant": true,
      "inputs": [],
      "name": "getCount",
      "outputs": [
        {
          "name": "",
          "type": "uint256"
        }
      ],
      "payable": false,
      "stateMutability": "view",
      "type": "function",
      "signature": "0xa87d942c"
    },
    {
      "constant": true,
      "inputs": [],
      "name": "getPrice",
      "outputs": [
        {
          "name": "",
          "type": "uint256"
        }
      ],
      "payable": false,
      "stateMutability": "view",
      "type": "function",
      "signature": "0x98d5fdca"
    },
    {
      "constant": true,
      "inputs": [],
      "name": "getValue",
      "outputs": [
        {
          "name": "",
          "type": "uint256"
        }
      ],
      "payable": false,
      "stateMutability": "view",
      "type": "function",
      "signature": "0x20965255"
    },
    {
      "constant": true,
      "inputs": [],
      "name": "getState",
      "outputs": [
        {
          "name": "",
          "type": "uint256"
        }
      ],
      "payable": false,
      "stateMutability": "view",
      "type": "function",
      "signature": "0x1865c57d"
    }
  ],
  "bytecode": "0x608060405234801561001057600080fd5b50610e15806100206000396000f3fe6080604052600436106100f1576000357c0100000000000000000000000000000000000000000000000000000000900463ffffffff16806306661abd146100f657806306fdde031461012157806308551a53146101b157806317d7de7c146102085780631865c57d1461029857806320965255146102c35780633fa4f245146102ee578063603daf9a1461031957806369ded70f146103705780637150d8ae1461048c57806380889348146104e357806398d5fdca146105345780639f3a3d211461055f578063a035b1fe146105ad578063a87d942c146105d8578063c19d93fb14610603578063dbd0e1b61461063c575b600080fd5b34801561010257600080fd5b5061010b610693565b6040518082815260200191505060405180910390f35b34801561012d57600080fd5b50610136610699565b6040518080602001828103825283818151815260200191508051906020019080838360005b8381101561017657808201518184015260208101905061015b565b50505050905090810190601f1680156101a35780820380516001836020036101000a031916815260200191505b509250505060405180910390f35b3480156101bd57600080fd5b506101c6610737565b604051808273ffffffffffffffffffffffffffffffffffffffff1673ffffffffffffffffffffffffffffffffffffffff16815260200191505060405180910390f35b34801561021457600080fd5b5061021d61075c565b6040518080602001828103825283818151815260200191508051906020019080838360005b8381101561025d578082015181840152602081019050610242565b50505050905090810190601f16801561028a5780820380516001836020036101000a031916815260200191505b509250505060405180910390f35b3480156102a457600080fd5b506102ad6107fe565b6040518082815260200191505060405180910390f35b3480156102cf57600080fd5b506102d8610820565b6040518082815260200191505060405180910390f35b3480156102fa57600080fd5b5061030361082a565b6040518082815260200191505060405180910390f35b34801561032557600080fd5b5061032e610830565b604051808273ffffffffffffffffffffffffffffffffffffffff1673ffffffffffffffffffffffffffffffffffffffff16815260200191505060405180910390f35b34801561037c57600080fd5b5061048a600480360360a081101561039357600080fd5b81019080803573ffffffffffffffffffffffffffffffffffffffff169060200190929190803573ffffffffffffffffffffffffffffffffffffffff169060200190929190803590602001906401000000008111156103f057600080fd5b82018360208201111561040257600080fd5b8035906020019184600183028401116401000000008311171561042457600080fd5b91908080601f016020809104026020016040519081016040528093929190818152602001838380828437600081840152601f19601f820116905080830192505050505050509192919290803590602001909291908035906020019092919050505061085a565b005b34801561049857600080fd5b506104a1610938565b604051808273ffffffffffffffffffffffffffffffffffffffff1673ffffffffffffffffffffffffffffffffffffffff16815260200191505060405180910390f35b3480156104ef57600080fd5b506105326004803603602081101561050657600080fd5b81019080803573ffffffffffffffffffffffffffffffffffffffff16906020019092919050505061095e565b005b34801561054057600080fd5b50610549610ae9565b6040518082815260200191505060405180910390f35b6105ab6004803603604081101561057557600080fd5b81019080803573ffffffffffffffffffffffffffffffffffffffff16906020019092919080359060200190929190505050610af3565b005b3480156105b957600080fd5b506105c2610cf8565b6040518082815260200191505060405180910390f35b3480156105e457600080fd5b506105ed610cfe565b6040518082815260200191505060405180910390f35b34801561060f57600080fd5b50610618610d08565b6040518082600281111561062857fe5b60ff16815260200191505060405180910390f35b34801561064857600080fd5b50610651610d1b565b604051808273ffffffffffffffffffffffffffffffffffffffff1673ffffffffffffffffffffffffffffffffffffffff16815260200191505060405180910390f35b60035481565b60058054600181600116156101000203166002900480601f01602080910402602001604051908101604052809291908181526020018280546001816001161561010002031660029004801561072f5780601f106107045761010080835404028352916020019161072f565b820191906000526020600020905b81548152906001019060200180831161071257829003601f168201915b505050505081565b6000809054906101000a900473ffffffffffffffffffffffffffffffffffffffff1681565b606060058054600181600116156101000203166002900480601f0160208091040260200160405190810160405280929190818152602001828054600181600116156101000203166002900480156107f45780601f106107c9576101008083540402835291602001916107f4565b820191906000526020600020905b8154815290600101906020018083116107d757829003601f168201915b5050505050905090565b6000600660009054906101000a900460ff16600281111561081b57fe5b905090565b6000600254905090565b60025481565b6000600160009054906101000a900473ffffffffffffffffffffffffffffffffffffffff16905090565b846000806101000a81548173ffffffffffffffffffffffffffffffffffffffff021916908373ffffffffffffffffffffffffffffffffffffffff16021790555083600160006101000a81548173ffffffffffffffffffffffffffffffffffffffff021916908373ffffffffffffffffffffffffffffffffffffffff16021790555082600590805190602001906108f1929190610d44565b508160038190555080600481905550600454600354026002819055506000600660006101000a81548160ff0219169083600281111561092c57fe5b02179055505050505050565b600160009054906101000a900473ffffffffffffffffffffffffffffffffffffffff1681565b600180600281111561096c57fe5b600660009054906101000a900460ff16600281111561098757fe5b1415156109fc576040517f08c379a000000000000000000000000000000000000000000000000000000000815260040180806020018281038252600e8152602001807f496e76616c69642073746174652e00000000000000000000000000000000000081525060200191505060405180910390fd5b600160009054906101000a900473ffffffffffffffffffffffffffffffffffffffff1673ffffffffffffffffffffffffffffffffffffffff168273ffffffffffffffffffffffffffffffffffffffff16141515610ac1576040517f08c379a00000000000000000000000000000000000000000000000000000000081526004018080602001828103825260188152602001807f4f6e6c792062757965722063616e2063616c6c2074686973000000000000000081525060200191505060405180910390fd5b6002600660006101000a81548160ff02191690836002811115610ae057fe5b02179055505050565b6000600454905090565b6000806002811115610b0157fe5b600660009054906101000a900460ff166002811115610b1c57fe5b141515610b91576040517f08c379a000000000000000000000000000000000000000000000000000000000815260040180806020018281038252600e8152602001807f496e76616c69642073746174652e00000000000000000000000000000000000081525060200191505060405180910390fd5b600160009054906101000a900473ffffffffffffffffffffffffffffffffffffffff1673ffffffffffffffffffffffffffffffffffffffff168373ffffffffffffffffffffffffffffffffffffffff16141515610c56576040517f08c379a00000000000000000000000000000000000000000000000000000000081526004018080602001828103825260188152602001807f4f6e6c792062757965722063616e2063616c6c2074686973000000000000000081525060200191505060405180910390fd5b60025482141515610ccf576040517f08c379a00000000000000000000000000000000000000000000000000000000081526004018080602001828103825260148152602001807f596f7520676976652077726f6e67206d6f6e657900000000000000000000000081525060200191505060405180910390fd5b6001600660006101000a81548160ff02191690836002811115610cee57fe5b0217905550505050565b60045481565b6000600354905090565b600660009054906101000a900460ff1681565b60008060009054906101000a900473ffffffffffffffffffffffffffffffffffffffff16905090565b828054600181600116156101000203166002900490600052602060002090601f016020900481019282601f10610d8557805160ff1916838001178555610db3565b82800160010185558215610db3579182015b82811115610db2578251825591602001919060010190610d97565b5b509050610dc09190610dc4565b5090565b610de691905b80821115610de2576000816000905550600101610dca565b5090565b9056fea165627a7a72305820afd2275e31ada36edeb47e2ea75021e1b83aa242589c0a00c9eb7393606dbf1d0029",
  "source": "pragma solidity ^0.5.0;\r\n\r\ncontract Purchase {\r\n    address payable public seller;  //卖家地址\r\n    address payable public buyer; //买家地址\r\n    uint public value;  //总价\r\n    uint public count;  //商品数量\r\n    uint public price;  //单价\r\n    string public name; //商品名字\r\n    enum State { Created, Locked, Inactive }    \r\n    State public state; //订单状态\r\n\r\n    modifier inState(State _state) {\r\n        require(\r\n            state == _state,\r\n            \"Invalid state.\"\r\n        );\r\n        _;\r\n    }\r\n\r\n    function setPurchase (address payable seller_, address payable buyer_, string memory name_, uint count_, uint price_) public {\r\n        seller = seller_;\r\n        buyer = buyer_;\r\n        name = name_;\r\n        count = count_;\r\n        price = price_;\r\n        value = count * price;\r\n        state = State.Created;\r\n    }\r\n\r\n    function confirmPurchase(address payable buyer_, uint value_) public inState(State.Created) payable {\r\n        require(buyer_ == buyer, \"Only buyer can call this\");\r\n        require(value_ == value, \"You give wrong money\");\r\n        state = State.Locked;\r\n    }\r\n\r\n    function confirmReceived(address payable buyer_) public inState(State.Locked) {\r\n        require(buyer_ == buyer, \"Only buyer can call this\");\r\n        state = State.Inactive;\r\n    }\r\n\r\n    function getSeller() public view returns(address payable) {\r\n        return seller;\r\n    }\r\n\r\n    function getBuyer() public view returns(address) {\r\n        return buyer;\r\n    }\r\n\r\n    function getName() public view returns(string memory) {\r\n        return name;\r\n    }\r\n    \r\n    function getCount() public view returns(uint) {\r\n        return count;\r\n    }\r\n\r\n    function getPrice() public view returns(uint) {\r\n        return price;\r\n    }\r\n\r\n    function getValue() public view returns(uint) {\r\n        return value;\r\n    }\r\n\r\n    function getState() public view returns(uint) {\r\n        return uint(state);\r\n    }\r\n}",
  "sourcePath": "D:\\游戏\\学习\\区块链\\BloackchainPro\\TradingSystem\\contracts\\Purchase.sol",
  "compiler": {
    "name": "solc",
    "version": "0.5.0+commit.1d4f565a.Emscripten.clang"
  },
  "schemaVersion": "3.0.0",
  "updatedAt": "2018-12-30T13:07:19.679Z",
  "devdoc": {
    "methods": {}
  },
  "userdoc": {
    "methods": {}
  }
}