{
  "contractName": "TradingSystem",
  "abi": [
    {
      "constant": false,
      "inputs": [
        {
          "name": "name",
          "type": "string"
        },
        {
          "name": "password",
          "type": "string"
        }
      ],
      "name": "registOrLogin",
      "outputs": [],
      "payable": false,
      "stateMutability": "nonpayable",
      "type": "function",
      "signature": "0xcc076994"
    },
    {
      "constant": true,
      "inputs": [],
      "name": "getNameByAddress",
      "outputs": [
        {
          "name": "",
          "type": "string"
        }
      ],
      "payable": false,
      "stateMutability": "view",
      "type": "function",
      "signature": "0x42a26de5"
    },
    {
      "constant": true,
      "inputs": [],
      "name": "getUserBalance",
      "outputs": [
        {
          "name": "",
          "type": "uint256"
        }
      ],
      "payable": false,
      "stateMutability": "view",
      "type": "function",
      "signature": "0xb7013dc1"
    },
    {
      "constant": false,
      "inputs": [
        {
          "name": "newPassword",
          "type": "string"
        }
      ],
      "name": "setPassword",
      "outputs": [],
      "payable": false,
      "stateMutability": "nonpayable",
      "type": "function",
      "signature": "0x290bb453"
    },
    {
      "constant": true,
      "inputs": [],
      "name": "getPassword",
      "outputs": [
        {
          "name": "",
          "type": "string"
        }
      ],
      "payable": false,
      "stateMutability": "view",
      "type": "function",
      "signature": "0xcc8e2394"
    },
    {
      "constant": false,
      "inputs": [
        {
          "name": "name",
          "type": "string"
        },
        {
          "name": "information",
          "type": "string"
        },
        {
          "name": "price",
          "type": "uint256"
        },
        {
          "name": "count",
          "type": "uint256"
        }
      ],
      "name": "addGoods",
      "outputs": [],
      "payable": false,
      "stateMutability": "nonpayable",
      "type": "function",
      "signature": "0x2e0d3e17"
    },
    {
      "constant": false,
      "inputs": [
        {
          "name": "name",
          "type": "string"
        }
      ],
      "name": "deleteGoods",
      "outputs": [],
      "payable": false,
      "stateMutability": "nonpayable",
      "type": "function",
      "signature": "0x7666d46b"
    },
    {
      "constant": true,
      "inputs": [],
      "name": "getUserGoodsCount",
      "outputs": [
        {
          "name": "",
          "type": "uint256"
        }
      ],
      "payable": false,
      "stateMutability": "view",
      "type": "function",
      "signature": "0xfb904b7d"
    },
    {
      "constant": true,
      "inputs": [
        {
          "name": "x",
          "type": "uint256"
        }
      ],
      "name": "getGoods",
      "outputs": [
        {
          "name": "",
          "type": "string"
        },
        {
          "name": "",
          "type": "string"
        },
        {
          "name": "",
          "type": "uint256"
        },
        {
          "name": "",
          "type": "uint256"
        },
        {
          "name": "",
          "type": "string"
        }
      ],
      "payable": false,
      "stateMutability": "view",
      "type": "function",
      "signature": "0xb2590033"
    },
    {
      "constant": false,
      "inputs": [
        {
          "name": "name",
          "type": "string"
        },
        {
          "name": "count",
          "type": "uint256"
        },
        {
          "name": "owner",
          "type": "string"
        }
      ],
      "name": "buyGoods",
      "outputs": [],
      "payable": false,
      "stateMutability": "nonpayable",
      "type": "function",
      "signature": "0x2c88ab7d"
    },
    {
      "constant": true,
      "inputs": [],
      "name": "getUserPurchaseCount",
      "outputs": [
        {
          "name": "",
          "type": "uint256"
        }
      ],
      "payable": false,
      "stateMutability": "view",
      "type": "function",
      "signature": "0x40204d24"
    },
    {
      "constant": true,
      "inputs": [
        {
          "name": "x",
          "type": "uint256"
        }
      ],
      "name": "getPurchase",
      "outputs": [
        {
          "name": "",
          "type": "string"
        },
        {
          "name": "",
          "type": "uint256"
        },
        {
          "name": "",
          "type": "uint256"
        },
        {
          "name": "",
          "type": "uint256"
        },
        {
          "name": "",
          "type": "uint256"
        }
      ],
      "payable": false,
      "stateMutability": "view",
      "type": "function",
      "signature": "0x3742a9f7"
    },
    {
      "constant": true,
      "inputs": [
        {
          "name": "x",
          "type": "uint256"
        }
      ],
      "name": "getBuyer",
      "outputs": [
        {
          "name": "",
          "type": "address"
        }
      ],
      "payable": false,
      "stateMutability": "view",
      "type": "function",
      "signature": "0x5bf608b8"
    },
    {
      "constant": false,
      "inputs": [
        {
          "name": "x",
          "type": "uint256"
        }
      ],
      "name": "confirmPurchase",
      "outputs": [],
      "payable": true,
      "stateMutability": "payable",
      "type": "function",
      "signature": "0x4d24e902"
    },
    {
      "constant": false,
      "inputs": [
        {
          "name": "x",
          "type": "uint256"
        }
      ],
      "name": "confirmReceived",
      "outputs": [],
      "payable": true,
      "stateMutability": "payable",
      "type": "function",
      "signature": "0x27dac36d"
    },
    {
      "constant": true,
      "inputs": [],
      "name": "getThisBalance",
      "outputs": [
        {
          "name": "",
          "type": "uint256"
        }
      ],
      "payable": false,
      "stateMutability": "view",
      "type": "function",
      "signature": "0x8e8cf4a8"
    }
  ],
  "bytecode": "0x6080604052600060015534801561001557600080fd5b50615e80806100256000396000f3fe6080604052600436106100e6576000357c0100000000000000000000000000000000000000000000000000000000900463ffffffff16806327dac36d146100eb578063290bb453146101195780632c88ab7d146101e15780632e0d3e171461034a5780633742a9f7146104bd57806340204d241461058d57806342a26de5146105b85780634d24e902146106485780635bf608b8146106765780637666d46b146106f15780638e8cf4a8146107b9578063b2590033146107e4578063b7013dc11461097e578063cc076994146109a9578063cc8e239414610b08578063fb904b7d14610b98575b600080fd5b6101176004803603602081101561010157600080fd5b8101908080359060200190929190505050610bc3565b005b34801561012557600080fd5b506101df6004803603602081101561013c57600080fd5b810190808035906020019064010000000081111561015957600080fd5b82018360208201111561016b57600080fd5b8035906020019184600183028401116401000000008311171561018d57600080fd5b91908080601f016020809104026020016040519081016040528093929190818152602001838380828437600081840152601f19601f8201169050808301925050505050505091929192905050506110aa565b005b3480156101ed57600080fd5b506103486004803603606081101561020457600080fd5b810190808035906020019064010000000081111561022157600080fd5b82018360208201111561023357600080fd5b8035906020019184600183028401116401000000008311171561025557600080fd5b91908080601f016020809104026020016040519081016040528093929190818152602001838380828437600081840152601f19601f82011690508083019250505050505050919291929080359060200190929190803590602001906401000000008111156102c257600080fd5b8201836020820111156102d457600080fd5b803590602001918460018302840111640100000000831117156102f657600080fd5b91908080601f016020809104026020016040519081016040528093929190818152602001838380828437600081840152601f19601f820116905080830192505050505050509192919290505050611191565b005b34801561035657600080fd5b506104bb6004803603608081101561036d57600080fd5b810190808035906020019064010000000081111561038a57600080fd5b82018360208201111561039c57600080fd5b803590602001918460018302840111640100000000831117156103be57600080fd5b91908080601f016020809104026020016040519081016040528093929190818152602001838380828437600081840152601f19601f8201169050808301925050505050505091929192908035906020019064010000000081111561042157600080fd5b82018360208201111561043357600080fd5b8035906020019184600183028401116401000000008311171561045557600080fd5b91908080601f016020809104026020016040519081016040528093929190818152602001838380828437600081840152601f19601f8201169050808301925050505050505091929192908035906020019092919080359060200190929190505050611ae8565b005b3480156104c957600080fd5b506104f6600480360360208110156104e057600080fd5b8101908080359060200190929190505050612332565b6040518080602001868152602001858152602001848152602001838152602001828103825287818151815260200191508051906020019080838360005b8381101561054e578082015181840152602081019050610533565b50505050905090810190601f16801561057b5780820380516001836020036101000a031916815260200191505b50965050505050505060405180910390f35b34801561059957600080fd5b506105a2612b32565b6040518082815260200191505060405180910390f35b3480156105c457600080fd5b506105cd612c08565b6040518080602001828103825283818151815260200191508051906020019080838360005b8381101561060d5780820151818401526020810190506105f2565b50505050905090810190601f16801561063a5780820380516001836020036101000a031916815260200191505b509250505060405180910390f35b6106746004803603602081101561065e57600080fd5b8101908080359060200190929190505050612ce7565b005b34801561068257600080fd5b506106af6004803603602081101561069957600080fd5b8101908080359060200190929190505050612e91565b604051808273ffffffffffffffffffffffffffffffffffffffff1673ffffffffffffffffffffffffffffffffffffffff16815260200191505060405180910390f35b3480156106fd57600080fd5b506107b76004803603602081101561071457600080fd5b810190808035906020019064010000000081111561073157600080fd5b82018360208201111561074357600080fd5b8035906020019184600183028401116401000000008311171561076557600080fd5b91908080601f016020809104026020016040519081016040528093929190818152602001838380828437600081840152601f19601f82011690508083019250505050505050919291929050505061301d565b005b3480156107c557600080fd5b506107ce613d09565b6040518082815260200191505060405180910390f35b3480156107f057600080fd5b5061081d6004803603602081101561080757600080fd5b8101908080359060200190929190505050613d28565b60405180806020018060200186815260200185815260200180602001848103845289818151815260200191508051906020019080838360005b83811015610871578082015181840152602081019050610856565b50505050905090810190601f16801561089e5780820380516001836020036101000a031916815260200191505b50848103835288818151815260200191508051906020019080838360005b838110156108d75780820151818401526020810190506108bc565b50505050905090810190601f1680156109045780820380516001836020036101000a031916815260200191505b50848103825285818151815260200191508051906020019080838360005b8381101561093d578082015181840152602081019050610922565b50505050905090810190601f16801561096a5780820380516001836020036101000a031916815260200191505b509850505050505050505060405180910390f35b34801561098a57600080fd5b5061099361431a565b6040518082815260200191505060405180910390f35b3480156109b557600080fd5b50610b06600480360360408110156109cc57600080fd5b81019080803590602001906401000000008111156109e957600080fd5b8201836020820111156109fb57600080fd5b80359060200191846001830284011164010000000083111715610a1d57600080fd5b91908080601f016020809104026020016040519081016040528093929190818152602001838380828437600081840152601f19601f82011690508083019250505050505050919291929080359060200190640100000000811115610a8057600080fd5b820183602082011115610a9257600080fd5b80359060200191846001830284011164010000000083111715610ab457600080fd5b91908080601f016020809104026020016040519081016040528093929190818152602001838380828437600081840152601f19601f820116905080830192505050505050509192919290505050614339565b005b348015610b1457600080fd5b50610b1d6149be565b6040518080602001828103825283818151815260200191508051906020019080838360005b83811015610b5d578082015181840152602081019050610b42565b50505050905090810190601f168015610b8a5780820380516001836020036101000a031916815260200191505b509250505060405180910390f35b348015610ba457600080fd5b50610bad614b2d565b6040518082815260200191505060405180910390f35b6006600460003373ffffffffffffffffffffffffffffffffffffffff1673ffffffffffffffffffffffffffffffffffffffff1681526020019081526020016000206040518082805460018160011615610100020316600290048015610c5f5780601f10610c3d576101008083540402835291820191610c5f565b820191906000526020600020905b815481529060010190602001808311610c4b575b5050915050908152602001604051809103902081815481101515610c7f57fe5b9060005260206000200160009054906101000a900473ffffffffffffffffffffffffffffffffffffffff1673ffffffffffffffffffffffffffffffffffffffff166380889348336040518263ffffffff167c0100000000000000000000000000000000000000000000000000000000028152600401808273ffffffffffffffffffffffffffffffffffffffff1673ffffffffffffffffffffffffffffffffffffffff168152602001915050600060405180830381600087803b158015610d4457600080fd5b505af1158015610d58573d6000803e3d6000fd5b505050506006600460003373ffffffffffffffffffffffffffffffffffffffff1673ffffffffffffffffffffffffffffffffffffffff1681526020019081526020016000206040518082805460018160011615610100020316600290048015610df85780601f10610dd6576101008083540402835291820191610df8565b820191906000526020600020905b815481529060010190602001808311610de4575b5050915050908152602001604051809103902081815481101515610e1857fe5b9060005260206000200160009054906101000a900473ffffffffffffffffffffffffffffffffffffffff1673ffffffffffffffffffffffffffffffffffffffff1663dbd0e1b66040518163ffffffff167c010000000000000000000000000000000000000000000000000000000002815260040160206040518083038186803b158015610ea457600080fd5b505afa158015610eb8573d6000803e3d6000fd5b505050506040513d6020811015610ece57600080fd5b810190808051906020019092919050505073ffffffffffffffffffffffffffffffffffffffff166108fc6006600460003373ffffffffffffffffffffffffffffffffffffffff1673ffffffffffffffffffffffffffffffffffffffff1681526020019081526020016000206040518082805460018160011615610100020316600290048015610f945780601f10610f72576101008083540402835291820191610f94565b820191906000526020600020905b815481529060010190602001808311610f80575b5050915050908152602001604051809103902083815481101515610fb457fe5b9060005260206000200160009054906101000a900473ffffffffffffffffffffffffffffffffffffffff1673ffffffffffffffffffffffffffffffffffffffff1663209652556040518163ffffffff167c010000000000000000000000000000000000000000000000000000000002815260040160206040518083038186803b15801561104057600080fd5b505afa158015611054573d6000803e3d6000fd5b505050506040513d602081101561106a57600080fd5b81019080805190602001909291905050509081150290604051600060405180830381858888f193505050501580156110a6573d6000803e3d6000fd5b5050565b8060006003600460003373ffffffffffffffffffffffffffffffffffffffff1673ffffffffffffffffffffffffffffffffffffffff16815260200190815260200160002060405180828054600181600116156101000203166002900480156111495780601f10611127576101008083540402835291820191611149565b820191906000526020600020905b815481529060010190602001808311611135575b505091505090815260200160405180910390205481548110151561116957fe5b9060005260206000209060060201600101908051906020019061118d929190614d8a565b5050565b816005826040518082805190602001908083835b6020831015156111ca57805182526020820191506020810190506020830392506111a5565b6001836020036101000a038019825116818451168082178552505050505050905001915050908152602001604051809103902060006003846040518082805190602001908083835b6020831015156112375780518252602082019150602081019050602083039250611212565b6001836020036101000a03801982511681845116808217855250505050505090500191505090815260200160405180910390205481548110151561127757fe5b9060005260206000209060060201600401856040518082805190602001908083835b6020831015156112be5780518252602082019150602081019050602083039250611299565b6001836020036101000a0380198251168184511680821785525050505050509050019150509081526020016040518091039020548154811015156112fe57fe5b90600052602060002090600502016004015410151515611386576040517f08c379a00000000000000000000000000000000000000000000000000000000081526004018080602001828103825260178152602001807f54686520636f756e74206973206e6f7420656e6f75676800000000000000000081525060200191505060405180910390fd5b816005826040518082805190602001908083835b6020831015156113bf578051825260208201915060208101905060208303925061139a565b6001836020036101000a038019825116818451168082178552505050505050905001915050908152602001604051809103902060006003846040518082805190602001908083835b60208310151561142c5780518252602082019150602081019050602083039250611407565b6001836020036101000a03801982511681845116808217855250505050505090500191505090815260200160405180910390205481548110151561146c57fe5b9060005260206000209060060201600401856040518082805190602001908083835b6020831015156114b3578051825260208201915060208101905060208303925061148e565b6001836020036101000a0380198251168184511680821785525050505050509050019150509081526020016040518091039020548154811015156114f357fe5b906000526020600020906005020160040160008282540392505081905550600061151b614e0a565b604051809103906000f080158015611537573d6000803e3d6000fd5b50905060006005836040518082805190602001908083835b602083101515611574578051825260208201915060208101905060208303925061154f565b6001836020036101000a038019825116818451168082178552505050505050905001915050908152602001604051809103902060006003600460003373ffffffffffffffffffffffffffffffffffffffff1673ffffffffffffffffffffffffffffffffffffffff16815260200190815260200160002060405180828054600181600116156101000203166002900480156116455780601f10611623576101008083540402835291820191611645565b820191906000526020600020905b815481529060010190602001808311611631575b505091505090815260200160405180910390205481548110151561166557fe5b9060005260206000209060060201600401866040518082805190602001908083835b6020831015156116ac5780518252602082019150602081019050602083039250611687565b6001836020036101000a0380198251168184511680821785525050505050509050019150509081526020016040518091039020548154811015156116ec57fe5b90600052602060002090600502016003015490508173ffffffffffffffffffffffffffffffffffffffff166369ded70f6007856040518082805190602001908083835b602083101515611754578051825260208201915060208101905060208303925061172f565b6001836020036101000a038019825116818451168082178552505050505050905001915050908152602001604051809103902060009054906101000a900473ffffffffffffffffffffffffffffffffffffffff16338888866040518663ffffffff167c0100000000000000000000000000000000000000000000000000000000028152600401808673ffffffffffffffffffffffffffffffffffffffff1673ffffffffffffffffffffffffffffffffffffffff1681526020018573ffffffffffffffffffffffffffffffffffffffff1673ffffffffffffffffffffffffffffffffffffffff16815260200180602001848152602001838152602001828103825285818151815260200191508051906020019080838360005b8381101561188757808201518184015260208101905061186c565b50505050905090810190601f1680156118b45780820380516001836020036101000a031916815260200191505b509650505050505050600060405180830381600087803b1580156118d757600080fd5b505af11580156118eb573d6000803e3d6000fd5b505050506006600460003373ffffffffffffffffffffffffffffffffffffffff1673ffffffffffffffffffffffffffffffffffffffff168152602001908152602001600020604051808280546001816001161561010002031660029004801561198b5780601f1061196957610100808354040283529182019161198b565b820191906000526020600020905b815481529060010190602001808311611977575b505091505090815260200160405180910390208290806001815401808255809150509060018203906000526020600020016000909192909190916101000a81548173ffffffffffffffffffffffffffffffffffffffff021916908373ffffffffffffffffffffffffffffffffffffffff1602179055505060006003600460003373ffffffffffffffffffffffffffffffffffffffff1673ffffffffffffffffffffffffffffffffffffffff1681526020019081526020016000206040518082805460018160011615610100020316600290048015611aa05780601f10611a7e576101008083540402835291820191611aa0565b820191906000526020600020905b815481529060010190602001808311611a8c575b5050915050908152602001604051809103902054815481101515611ac057fe5b9060005260206000209060060201600301600081548092919060010191905055505050505050565b6000151560006003600460003373ffffffffffffffffffffffffffffffffffffffff1673ffffffffffffffffffffffffffffffffffffffff1681526020019081526020016000206040518082805460018160011615610100020316600290048015611b8a5780601f10611b68576101008083540402835291820191611b8a565b820191906000526020600020905b815481529060010190602001808311611b76575b5050915050908152602001604051809103902054815481101515611baa57fe5b9060005260206000209060060201600501856040518082805190602001908083835b602083101515611bf15780518252602082019150602081019050602083039250611bcc565b6001836020036101000a038019825116818451168082178552505050505050905001915050908152602001604051809103902060009054906101000a900460ff161515141515611ca9576040517f08c379a00000000000000000000000000000000000000000000000000000000081526004018080602001828103825260118152602001807f54686520676f6f6473206578697374732100000000000000000000000000000081525060200191505060405180910390fd5b60006003600460003373ffffffffffffffffffffffffffffffffffffffff1673ffffffffffffffffffffffffffffffffffffffff1681526020019081526020016000206040518082805460018160011615610100020316600290048015611d475780601f10611d25576101008083540402835291820191611d47565b820191906000526020600020905b815481529060010190602001808311611d33575b5050915050908152602001604051809103902054815481101515611d6757fe5b90600052602060002090600602016002015460006003600460003373ffffffffffffffffffffffffffffffffffffffff1673ffffffffffffffffffffffffffffffffffffffff1681526020019081526020016000206040518082805460018160011615610100020316600290048015611e175780601f10611df5576101008083540402835291820191611e17565b820191906000526020600020905b815481529060010190602001808311611e03575b5050915050908152602001604051809103902054815481101515611e3757fe5b9060005260206000209060060201600401856040518082805190602001908083835b602083101515611e7e5780518252602082019150602081019050602083039250611e59565b6001836020036101000a038019825116818451168082178552505050505050905001915050908152602001604051809103902081905550600160006003600460003373ffffffffffffffffffffffffffffffffffffffff1673ffffffffffffffffffffffffffffffffffffffff1681526020019081526020016000206040518082805460018160011615610100020316600290048015611f555780601f10611f33576101008083540402835291820191611f55565b820191906000526020600020905b815481529060010190602001808311611f41575b5050915050908152602001604051809103902054815481101515611f7557fe5b9060005260206000209060060201600501856040518082805190602001908083835b602083101515611fbc5780518252602082019150602081019050602083039250611f97565b6001836020036101000a038019825116818451168082178552505050505050905001915050908152602001604051809103902060006101000a81548160ff02191690831515021790555060006003600460003373ffffffffffffffffffffffffffffffffffffffff1673ffffffffffffffffffffffffffffffffffffffff16815260200190815260200160002060405180828054600181600116156101000203166002900480156120a45780601f106120825761010080835404028352918201916120a4565b820191906000526020600020905b815481529060010190602001808311612090575b50509150509081526020016040518091039020548154811015156120c457fe5b9060005260206000209060060201600201600081548092919060010191905055506005600460003373ffffffffffffffffffffffffffffffffffffffff1673ffffffffffffffffffffffffffffffffffffffff16815260200190815260200160002060405180828054600181600116156101000203166002900480156121815780601f1061215f576101008083540402835291820191612181565b820191906000526020600020905b81548152906001019060200180831161216d575b5050915050908152602001604051809103902060a060405190810160405280600460003373ffffffffffffffffffffffffffffffffffffffff1673ffffffffffffffffffffffffffffffffffffffff1681526020019081526020016000208054600181600116156101000203166002900480601f0160208091040260200160405190810160405280929190818152602001828054600181600116156101000203166002900480156122735780601f1061224857610100808354040283529160200191612273565b820191906000526020600020905b81548152906001019060200180831161225657829003601f168201915b50505050508152602001868152602001858152602001848152602001838152509080600181540180825580915050906001820390600052602060002090600502016000909192909190915060008201518160000190805190602001906122da929190614e1a565b5060208201518160010190805190602001906122f7929190614e1a565b506040820151816002019080519060200190612314929190614e1a565b50606082015181600301556080820151816004015550505050505050565b60606000806000806006600460003373ffffffffffffffffffffffffffffffffffffffff1673ffffffffffffffffffffffffffffffffffffffff16815260200190815260200160002060405180828054600181600116156101000203166002900480156123d65780601f106123b45761010080835404028352918201916123d6565b820191906000526020600020905b8154815290600101906020018083116123c2575b50509150509081526020016040518091039020868154811015156123f657fe5b9060005260206000200160009054906101000a900473ffffffffffffffffffffffffffffffffffffffff1673ffffffffffffffffffffffffffffffffffffffff166317d7de7c6040518163ffffffff167c010000000000000000000000000000000000000000000000000000000002815260040160006040518083038186803b15801561248257600080fd5b505afa158015612496573d6000803e3d6000fd5b505050506040513d6000823e3d601f19601f8201168201806040525060208110156124c057600080fd5b8101908080516401000000008111156124d857600080fd5b828101905060208101848111156124ee57600080fd5b815185600182028301116401000000008211171561250b57600080fd5b50509291905050506006600460003373ffffffffffffffffffffffffffffffffffffffff1673ffffffffffffffffffffffffffffffffffffffff16815260200190815260200160002060405180828054600181600116156101000203166002900480156125af5780601f1061258d5761010080835404028352918201916125af565b820191906000526020600020905b81548152906001019060200180831161259b575b50509150509081526020016040518091039020878154811015156125cf57fe5b9060005260206000200160009054906101000a900473ffffffffffffffffffffffffffffffffffffffff1673ffffffffffffffffffffffffffffffffffffffff1663a87d942c6040518163ffffffff167c010000000000000000000000000000000000000000000000000000000002815260040160206040518083038186803b15801561265b57600080fd5b505afa15801561266f573d6000803e3d6000fd5b505050506040513d602081101561268557600080fd5b81019080805190602001909291905050506006600460003373ffffffffffffffffffffffffffffffffffffffff1673ffffffffffffffffffffffffffffffffffffffff16815260200190815260200160002060405180828054600181600116156101000203166002900480156127325780601f10612710576101008083540402835291820191612732565b820191906000526020600020905b81548152906001019060200180831161271e575b505091505090815260200160405180910390208881548110151561275257fe5b9060005260206000200160009054906101000a900473ffffffffffffffffffffffffffffffffffffffff1673ffffffffffffffffffffffffffffffffffffffff166398d5fdca6040518163ffffffff167c010000000000000000000000000000000000000000000000000000000002815260040160206040518083038186803b1580156127de57600080fd5b505afa1580156127f2573d6000803e3d6000fd5b505050506040513d602081101561280857600080fd5b81019080805190602001909291905050506006600460003373ffffffffffffffffffffffffffffffffffffffff1673ffffffffffffffffffffffffffffffffffffffff16815260200190815260200160002060405180828054600181600116156101000203166002900480156128b55780601f106128935761010080835404028352918201916128b5565b820191906000526020600020905b8154815290600101906020018083116128a1575b50509150509081526020016040518091039020898154811015156128d557fe5b9060005260206000200160009054906101000a900473ffffffffffffffffffffffffffffffffffffffff1673ffffffffffffffffffffffffffffffffffffffff1663209652556040518163ffffffff167c010000000000000000000000000000000000000000000000000000000002815260040160206040518083038186803b15801561296157600080fd5b505afa158015612975573d6000803e3d6000fd5b505050506040513d602081101561298b57600080fd5b81019080805190602001909291905050506006600460003373ffffffffffffffffffffffffffffffffffffffff1673ffffffffffffffffffffffffffffffffffffffff1681526020019081526020016000206040518082805460018160011615610100020316600290048015612a385780601f10612a16576101008083540402835291820191612a38565b820191906000526020600020905b815481529060010190602001808311612a24575b505091505090815260200160405180910390208a815481101515612a5857fe5b9060005260206000200160009054906101000a900473ffffffffffffffffffffffffffffffffffffffff1673ffffffffffffffffffffffffffffffffffffffff16631865c57d6040518163ffffffff167c010000000000000000000000000000000000000000000000000000000002815260040160206040518083038186803b158015612ae457600080fd5b505afa158015612af8573d6000803e3d6000fd5b505050506040513d6020811015612b0e57600080fd5b81019080805190602001909291905050509450945094509450945091939590929450565b6000806003600460003373ffffffffffffffffffffffffffffffffffffffff1673ffffffffffffffffffffffffffffffffffffffff1681526020019081526020016000206040518082805460018160011615610100020316600290048015612bd15780601f10612baf576101008083540402835291820191612bd1565b820191906000526020600020905b815481529060010190602001808311612bbd575b5050915050908152602001604051809103902054815481101515612bf157fe5b906000526020600020906006020160030154905090565b6060600460003373ffffffffffffffffffffffffffffffffffffffff1673ffffffffffffffffffffffffffffffffffffffff1681526020019081526020016000208054600181600116156101000203166002900480601f016020809104026020016040519081016040528092919081815260200182805460018160011615610100020316600290048015612cdd5780601f10612cb257610100808354040283529160200191612cdd565b820191906000526020600020905b815481529060010190602001808311612cc057829003601f168201915b5050505050905090565b60003490506006600460003373ffffffffffffffffffffffffffffffffffffffff1673ffffffffffffffffffffffffffffffffffffffff1681526020019081526020016000206040518082805460018160011615610100020316600290048015612d885780601f10612d66576101008083540402835291820191612d88565b820191906000526020600020905b815481529060010190602001808311612d74575b5050915050908152602001604051809103902082815481101515612da857fe5b9060005260206000200160009054906101000a900473ffffffffffffffffffffffffffffffffffffffff1673ffffffffffffffffffffffffffffffffffffffff16639f3a3d2133836040518363ffffffff167c0100000000000000000000000000000000000000000000000000000000028152600401808373ffffffffffffffffffffffffffffffffffffffff1673ffffffffffffffffffffffffffffffffffffffff16815260200182815260200192505050600060405180830381600087803b158015612e7557600080fd5b505af1158015612e89573d6000803e3d6000fd5b505050505050565b60006006600460003373ffffffffffffffffffffffffffffffffffffffff1673ffffffffffffffffffffffffffffffffffffffff1681526020019081526020016000206040518082805460018160011615610100020316600290048015612f2f5780601f10612f0d576101008083540402835291820191612f2f565b820191906000526020600020905b815481529060010190602001808311612f1b575b5050915050908152602001604051809103902082815481101515612f4f57fe5b9060005260206000200160009054906101000a900473ffffffffffffffffffffffffffffffffffffffff1673ffffffffffffffffffffffffffffffffffffffff1663603daf9a6040518163ffffffff167c010000000000000000000000000000000000000000000000000000000002815260040160206040518083038186803b158015612fdb57600080fd5b505afa158015612fef573d6000803e3d6000fd5b505050506040513d602081101561300557600080fd5b81019080805190602001909291905050509050919050565b6005600460003373ffffffffffffffffffffffffffffffffffffffff1673ffffffffffffffffffffffffffffffffffffffff16815260200190815260200160002060405180828054600181600116156101000203166002900480156130b95780601f106130975761010080835404028352918201916130b9565b820191906000526020600020905b8154815290600101906020018083116130a5575b5050915050908152602001604051809103902060016005600460003373ffffffffffffffffffffffffffffffffffffffff1673ffffffffffffffffffffffffffffffffffffffff168152602001908152602001600020604051808280546001816001161561010002031660029004801561316a5780601f1061314857610100808354040283529182019161316a565b820191906000526020600020905b815481529060010190602001808311613156575b50509150509081526020016040518091039020805490500381548110151561318e57fe5b90600052602060002090600502016005600460003373ffffffffffffffffffffffffffffffffffffffff1673ffffffffffffffffffffffffffffffffffffffff16815260200190815260200160002060405180828054600181600116156101000203166002900480156132385780601f10613216576101008083540402835291820191613238565b820191906000526020600020905b815481529060010190602001808311613224575b5050915050908152602001604051809103902060006003600460003373ffffffffffffffffffffffffffffffffffffffff1673ffffffffffffffffffffffffffffffffffffffff16815260200190815260200160002060405180828054600181600116156101000203166002900480156132e95780601f106132c75761010080835404028352918201916132e9565b820191906000526020600020905b8154815290600101906020018083116132d5575b505091505090815260200160405180910390205481548110151561330957fe5b9060005260206000209060060201600401836040518082805190602001908083835b602083101515613350578051825260208201915060208101905060208303925061332b565b6001836020036101000a03801982511681845116808217855250505050505090500191505090815260200160405180910390205481548110151561339057fe5b9060005260206000209060050201600082018160000190805460018160011615610100020316600290046133c5929190614e9a565b50600182018160010190805460018160011615610100020316600290046133ed929190614e9a565b5060028201816002019080546001816001161561010002031660029004613415929190614e9a565b50600382015481600301556004820154816004015590505060006003600460003373ffffffffffffffffffffffffffffffffffffffff1673ffffffffffffffffffffffffffffffffffffffff16815260200190815260200160002060405180828054600181600116156101000203166002900480156134cb5780601f106134a95761010080835404028352918201916134cb565b820191906000526020600020905b8154815290600101906020018083116134b7575b50509150509081526020016040518091039020548154811015156134eb57fe5b9060005260206000209060060201600401816040518082805190602001908083835b602083101515613532578051825260208201915060208101905060208303925061350d565b6001836020036101000a03801982511681845116808217855250505050505090500191505090815260200160405180910390205460006003600460003373ffffffffffffffffffffffffffffffffffffffff1673ffffffffffffffffffffffffffffffffffffffff16815260200190815260200160002060405180828054600181600116156101000203166002900480156136045780601f106135e2576101008083540402835291820191613604565b820191906000526020600020905b8154815290600101906020018083116135f0575b505091505090815260200160405180910390205481548110151561362457fe5b90600052602060002090600602016004016005600460003373ffffffffffffffffffffffffffffffffffffffff1673ffffffffffffffffffffffffffffffffffffffff16815260200190815260200160002060405180828054600181600116156101000203166002900480156136d15780601f106136af5761010080835404028352918201916136d1565b820191906000526020600020905b8154815290600101906020018083116136bd575b5050915050908152602001604051809103902060016005600460003373ffffffffffffffffffffffffffffffffffffffff1673ffffffffffffffffffffffffffffffffffffffff16815260200190815260200160002060405180828054600181600116156101000203166002900480156137825780601f10613760576101008083540402835291820191613782565b820191906000526020600020905b81548152906001019060200180831161376e575b5050915050908152602001604051809103902080549050038154811015156137a657fe5b906000526020600020906005020160010160405180828054600181600116156101000203166002900480156138125780601f106137f0576101008083540402835291820191613812565b820191906000526020600020905b8154815290600101906020018083116137fe575b505091505090815260200160405180910390208190555060006003600460003373ffffffffffffffffffffffffffffffffffffffff1673ffffffffffffffffffffffffffffffffffffffff16815260200190815260200160002060405180828054600181600116156101000203166002900480156138c75780601f106138a55761010080835404028352918201916138c7565b820191906000526020600020905b8154815290600101906020018083116138b3575b50509150509081526020016040518091039020548154811015156138e757fe5b9060005260206000209060060201600401816040518082805190602001908083835b60208310151561392e5780518252602082019150602081019050602083039250613909565b6001836020036101000a0380198251168184511680821785525050505050509050019150509081526020016040518091039020600090556000806003600460003373ffffffffffffffffffffffffffffffffffffffff1673ffffffffffffffffffffffffffffffffffffffff1681526020019081526020016000206040518082805460018160011615610100020316600290048015613a045780601f106139e2576101008083540402835291820191613a04565b820191906000526020600020905b8154815290600101906020018083116139f0575b5050915050908152602001604051809103902054815481101515613a2457fe5b9060005260206000209060060201600501826040518082805190602001908083835b602083101515613a6b5780518252602082019150602081019050602083039250613a46565b6001836020036101000a038019825116818451168082178552505050505050905001915050908152602001604051809103902060006101000a81548160ff02191690831515021790555060016005600460003373ffffffffffffffffffffffffffffffffffffffff1673ffffffffffffffffffffffffffffffffffffffff1681526020019081526020016000206040518082805460018160011615610100020316600290048015613b535780601f10613b31576101008083540402835291820191613b53565b820191906000526020600020905b815481529060010190602001808311613b3f575b5050915050908152602001604051809103902080549050036005600460003373ffffffffffffffffffffffffffffffffffffffff1673ffffffffffffffffffffffffffffffffffffffff1681526020019081526020016000206040518082805460018160011615610100020316600290048015613c075780601f10613be5576101008083540402835291820191613c07565b820191906000526020600020905b815481529060010190602001808311613bf3575b5050915050908152602001604051809103902081613c259190614f21565b5060006003600460003373ffffffffffffffffffffffffffffffffffffffff1673ffffffffffffffffffffffffffffffffffffffff1681526020019081526020016000206040518082805460018160011615610100020316600290048015613cc45780601f10613ca2576101008083540402835291820191613cc4565b820191906000526020600020905b815481529060010190602001808311613cb0575b5050915050908152602001604051809103902054815481101515613ce457fe5b9060005260206000209060060201600201600081548092919060019003919050555050565b60003073ffffffffffffffffffffffffffffffffffffffff1631905090565b60608060008060606005600460003373ffffffffffffffffffffffffffffffffffffffff1673ffffffffffffffffffffffffffffffffffffffff1681526020019081526020016000206040518082805460018160011615610100020316600290048015613dcc5780601f10613daa576101008083540402835291820191613dcc565b820191906000526020600020905b815481529060010190602001808311613db8575b5050915050908152602001604051809103902086815481101515613dec57fe5b90600052602060002090600502016001016005600460003373ffffffffffffffffffffffffffffffffffffffff1673ffffffffffffffffffffffffffffffffffffffff1681526020019081526020016000206040518082805460018160011615610100020316600290048015613e995780601f10613e77576101008083540402835291820191613e99565b820191906000526020600020905b815481529060010190602001808311613e85575b5050915050908152602001604051809103902087815481101515613eb957fe5b90600052602060002090600502016002016005600460003373ffffffffffffffffffffffffffffffffffffffff1673ffffffffffffffffffffffffffffffffffffffff1681526020019081526020016000206040518082805460018160011615610100020316600290048015613f665780601f10613f44576101008083540402835291820191613f66565b820191906000526020600020905b815481529060010190602001808311613f52575b5050915050908152602001604051809103902088815481101515613f8657fe5b9060005260206000209060050201600301546005600460003373ffffffffffffffffffffffffffffffffffffffff1673ffffffffffffffffffffffffffffffffffffffff16815260200190815260200160002060405180828054600181600116156101000203166002900480156140345780601f10614012576101008083540402835291820191614034565b820191906000526020600020905b815481529060010190602001808311614020575b505091505090815260200160405180910390208981548110151561405457fe5b9060005260206000209060050201600401546005600460003373ffffffffffffffffffffffffffffffffffffffff1673ffffffffffffffffffffffffffffffffffffffff16815260200190815260200160002060405180828054600181600116156101000203166002900480156141025780601f106140e0576101008083540402835291820191614102565b820191906000526020600020905b8154815290600101906020018083116140ee575b505091505090815260200160405180910390208a81548110151561412257fe5b9060005260206000209060050201600001848054600181600116156101000203166002900480601f0160208091040260200160405190810160405280929190818152602001828054600181600116156101000203166002900480156141c85780601f1061419d576101008083540402835291602001916141c8565b820191906000526020600020905b8154815290600101906020018083116141ab57829003601f168201915b50505050509450838054600181600116156101000203166002900480601f0160208091040260200160405190810160405280929190818152602001828054600181600116156101000203166002900480156142645780601f1061423957610100808354040283529160200191614264565b820191906000526020600020905b81548152906001019060200180831161424757829003601f168201915b50505050509350808054600181600116156101000203166002900480601f0160208091040260200160405190810160405280929190818152602001828054600181600116156101000203166002900480156143005780601f106142d557610100808354040283529160200191614300565b820191906000526020600020905b8154815290600101906020018083116142e357829003601f168201915b505050505090509450945094509450945091939590929450565b60003373ffffffffffffffffffffffffffffffffffffffff1631905090565b600115156002600460003373ffffffffffffffffffffffffffffffffffffffff1673ffffffffffffffffffffffffffffffffffffffff16815260200190815260200160002060405180828054600181600116156101000203166002900480156143d95780601f106143b75761010080835404028352918201916143d9565b820191906000526020600020905b8154815290600101906020018083116143c5575b5050915050908152602001604051809103902060009054906101000a900460ff161515141561461d576001151561444e600460003373ffffffffffffffffffffffffffffffffffffffff1673ffffffffffffffffffffffffffffffffffffffff16815260200190815260200160002084614c03565b15151415156144c5576040517f08c379a000000000000000000000000000000000000000000000000000000000815260040180806020018281038252601e8152602001807f506c6561736520696e70757420636f727265637420757365726e616d6521000081525060200191505060405180910390fd5b600115156145a160006003600460003373ffffffffffffffffffffffffffffffffffffffff1673ffffffffffffffffffffffffffffffffffffffff168152602001908152602001600020604051808280546001816001161561010002031660029004801561456a5780601f1061454857610100808354040283529182019161456a565b820191906000526020600020905b815481529060010190602001808311614556575b505091505090815260200160405180910390205481548110151561458a57fe5b906000526020600020906006020160010183614c03565b1515141515614618576040517f08c379a000000000000000000000000000000000000000000000000000000000815260040180806020018281038252601e8152602001807f506c6561736520696e70757420636f72726563742070617373776f726421000081525060200191505060405180910390fd5b6149ba565b600015156002836040518082805190602001908083835b6020831015156146595780518252602082019150602081019050602083039250614634565b6001836020036101000a038019825116818451168082178552505050505050905001915050908152602001604051809103902060009054906101000a900460ff161515141515614711576040517f08c379a00000000000000000000000000000000000000000000000000000000081526004018080602001828103825260178152602001807f546865206e616d6520686173206265656e20757365642100000000000000000081525060200191505060405180910390fd5b600060806040519081016040528084815260200183815260200160008152602001600081525090806001815401808255809150509060018203906000526020600020906006020160009091929091909150600082015181600001908051906020019061477e929190614e1a565b50602082015181600101908051906020019061479b929190614e1a565b5060408201518160020155606082015181600301555050506001546003836040518082805190602001908083835b6020831015156147ee57805182526020820191506020810190506020830392506147c9565b6001836020036101000a03801982511681845116808217855250505050505090500191505090815260200160405180910390208190555060016000815480929190600101919050555060016002836040518082805190602001908083835b602083101515614871578051825260208201915060208101905060208303925061484c565b6001836020036101000a038019825116818451168082178552505050505050905001915050908152602001604051809103902060006101000a81548160ff02191690831515021790555081600460003373ffffffffffffffffffffffffffffffffffffffff1673ffffffffffffffffffffffffffffffffffffffff168152602001908152602001600020908051906020019061490e929190614d8a565b50336007836040518082805190602001908083835b6020831015156149485780518252602082019150602081019050602083039250614923565b6001836020036101000a038019825116818451168082178552505050505050905001915050908152602001604051809103902060006101000a81548173ffffffffffffffffffffffffffffffffffffffff021916908373ffffffffffffffffffffffffffffffffffffffff1602179055505b5050565b606060006003600460003373ffffffffffffffffffffffffffffffffffffffff1673ffffffffffffffffffffffffffffffffffffffff1681526020019081526020016000206040518082805460018160011615610100020316600290048015614a5e5780601f10614a3c576101008083540402835291820191614a5e565b820191906000526020600020905b815481529060010190602001808311614a4a575b5050915050908152602001604051809103902054815481101515614a7e57fe5b90600052602060002090600602016001018054600181600116156101000203166002900480601f016020809104026020016040519081016040528092919081815260200182805460018160011615610100020316600290048015614b235780601f10614af857610100808354040283529160200191614b23565b820191906000526020600020905b815481529060010190602001808311614b0657829003601f168201915b5050505050905090565b6000806003600460003373ffffffffffffffffffffffffffffffffffffffff1673ffffffffffffffffffffffffffffffffffffffff1681526020019081526020016000206040518082805460018160011615610100020316600290048015614bcc5780601f10614baa576101008083540402835291820191614bcc565b820191906000526020600020905b815481529060010190602001808311614bb8575b5050915050908152602001604051809103902054815481101515614bec57fe5b906000526020600020906006020160020154905090565b6000808390506060839050805182805460018160011615610100020316600290049050141515614c3857600092505050614d84565b60008090505b82805460018160011615610100020316600290049050811015614d7c578181815181101515614c6957fe5b9060200101517f010000000000000000000000000000000000000000000000000000000000000090047f0100000000000000000000000000000000000000000000000000000000000000027effffffffffffffffffffffffffffffffffffffffffffffffffffffffffffff191683828154600181600116156101000203166002900481101515614cf557fe5b815460011615614d145790600052602060002090602091828204019190065b9054901a7f0100000000000000000000000000000000000000000000000000000000000000027effffffffffffffffffffffffffffffffffffffffffffffffffffffffffffff1916141515614d6f5760009350505050614d84565b8080600101915050614c3e565b506001925050505b92915050565b828054600181600116156101000203166002900490600052602060002090601f016020900481019282601f10614dcb57805160ff1916838001178555614df9565b82800160010185558215614df9579182015b82811115614df8578251825591602001919060010190614ddd565b5b509050614e069190614f53565b5090565b604051610e358061502083390190565b828054600181600116156101000203166002900490600052602060002090601f016020900481019282601f10614e5b57805160ff1916838001178555614e89565b82800160010185558215614e89579182015b82811115614e88578251825591602001919060010190614e6d565b5b509050614e969190614f53565b5090565b828054600181600116156101000203166002900490600052602060002090601f016020900481019282601f10614ed35780548555614f10565b82800160010185558215614f1057600052602060002091601f016020900482015b82811115614f0f578254825591600101919060010190614ef4565b5b509050614f1d9190614f53565b5090565b815481835581811115614f4e57600502816005028360005260206000209182019101614f4d9190614f78565b5b505050565b614f7591905b80821115614f71576000816000905550600101614f59565b5090565b90565b614fd491905b80821115614fd05760008082016000614f979190614fd7565b600182016000614fa79190614fd7565b600282016000614fb79190614fd7565b6003820160009055600482016000905550600501614f7e565b5090565b90565b50805460018160011615610100020316600290046000825580601f10614ffd575061501c565b601f01602090049060005260206000209081019061501b9190614f53565b5b5056fe608060405234801561001057600080fd5b50610e15806100206000396000f3fe6080604052600436106100f1576000357c0100000000000000000000000000000000000000000000000000000000900463ffffffff16806306661abd146100f657806306fdde031461012157806308551a53146101b157806317d7de7c146102085780631865c57d1461029857806320965255146102c35780633fa4f245146102ee578063603daf9a1461031957806369ded70f146103705780637150d8ae1461048c57806380889348146104e357806398d5fdca146105345780639f3a3d211461055f578063a035b1fe146105ad578063a87d942c146105d8578063c19d93fb14610603578063dbd0e1b61461063c575b600080fd5b34801561010257600080fd5b5061010b610693565b6040518082815260200191505060405180910390f35b34801561012d57600080fd5b50610136610699565b6040518080602001828103825283818151815260200191508051906020019080838360005b8381101561017657808201518184015260208101905061015b565b50505050905090810190601f1680156101a35780820380516001836020036101000a031916815260200191505b509250505060405180910390f35b3480156101bd57600080fd5b506101c6610737565b604051808273ffffffffffffffffffffffffffffffffffffffff1673ffffffffffffffffffffffffffffffffffffffff16815260200191505060405180910390f35b34801561021457600080fd5b5061021d61075c565b6040518080602001828103825283818151815260200191508051906020019080838360005b8381101561025d578082015181840152602081019050610242565b50505050905090810190601f16801561028a5780820380516001836020036101000a031916815260200191505b509250505060405180910390f35b3480156102a457600080fd5b506102ad6107fe565b6040518082815260200191505060405180910390f35b3480156102cf57600080fd5b506102d8610820565b6040518082815260200191505060405180910390f35b3480156102fa57600080fd5b5061030361082a565b6040518082815260200191505060405180910390f35b34801561032557600080fd5b5061032e610830565b604051808273ffffffffffffffffffffffffffffffffffffffff1673ffffffffffffffffffffffffffffffffffffffff16815260200191505060405180910390f35b34801561037c57600080fd5b5061048a600480360360a081101561039357600080fd5b81019080803573ffffffffffffffffffffffffffffffffffffffff169060200190929190803573ffffffffffffffffffffffffffffffffffffffff169060200190929190803590602001906401000000008111156103f057600080fd5b82018360208201111561040257600080fd5b8035906020019184600183028401116401000000008311171561042457600080fd5b91908080601f016020809104026020016040519081016040528093929190818152602001838380828437600081840152601f19601f820116905080830192505050505050509192919290803590602001909291908035906020019092919050505061085a565b005b34801561049857600080fd5b506104a1610938565b604051808273ffffffffffffffffffffffffffffffffffffffff1673ffffffffffffffffffffffffffffffffffffffff16815260200191505060405180910390f35b3480156104ef57600080fd5b506105326004803603602081101561050657600080fd5b81019080803573ffffffffffffffffffffffffffffffffffffffff16906020019092919050505061095e565b005b34801561054057600080fd5b50610549610ae9565b6040518082815260200191505060405180910390f35b6105ab6004803603604081101561057557600080fd5b81019080803573ffffffffffffffffffffffffffffffffffffffff16906020019092919080359060200190929190505050610af3565b005b3480156105b957600080fd5b506105c2610cf8565b6040518082815260200191505060405180910390f35b3480156105e457600080fd5b506105ed610cfe565b6040518082815260200191505060405180910390f35b34801561060f57600080fd5b50610618610d08565b6040518082600281111561062857fe5b60ff16815260200191505060405180910390f35b34801561064857600080fd5b50610651610d1b565b604051808273ffffffffffffffffffffffffffffffffffffffff1673ffffffffffffffffffffffffffffffffffffffff16815260200191505060405180910390f35b60035481565b60058054600181600116156101000203166002900480601f01602080910402602001604051908101604052809291908181526020018280546001816001161561010002031660029004801561072f5780601f106107045761010080835404028352916020019161072f565b820191906000526020600020905b81548152906001019060200180831161071257829003601f168201915b505050505081565b6000809054906101000a900473ffffffffffffffffffffffffffffffffffffffff1681565b606060058054600181600116156101000203166002900480601f0160208091040260200160405190810160405280929190818152602001828054600181600116156101000203166002900480156107f45780601f106107c9576101008083540402835291602001916107f4565b820191906000526020600020905b8154815290600101906020018083116107d757829003601f168201915b5050505050905090565b6000600660009054906101000a900460ff16600281111561081b57fe5b905090565b6000600254905090565b60025481565b6000600160009054906101000a900473ffffffffffffffffffffffffffffffffffffffff16905090565b846000806101000a81548173ffffffffffffffffffffffffffffffffffffffff021916908373ffffffffffffffffffffffffffffffffffffffff16021790555083600160006101000a81548173ffffffffffffffffffffffffffffffffffffffff021916908373ffffffffffffffffffffffffffffffffffffffff16021790555082600590805190602001906108f1929190610d44565b508160038190555080600481905550600454600354026002819055506000600660006101000a81548160ff0219169083600281111561092c57fe5b02179055505050505050565b600160009054906101000a900473ffffffffffffffffffffffffffffffffffffffff1681565b600180600281111561096c57fe5b600660009054906101000a900460ff16600281111561098757fe5b1415156109fc576040517f08c379a000000000000000000000000000000000000000000000000000000000815260040180806020018281038252600e8152602001807f496e76616c69642073746174652e00000000000000000000000000000000000081525060200191505060405180910390fd5b600160009054906101000a900473ffffffffffffffffffffffffffffffffffffffff1673ffffffffffffffffffffffffffffffffffffffff168273ffffffffffffffffffffffffffffffffffffffff16141515610ac1576040517f08c379a00000000000000000000000000000000000000000000000000000000081526004018080602001828103825260188152602001807f4f6e6c792062757965722063616e2063616c6c2074686973000000000000000081525060200191505060405180910390fd5b6002600660006101000a81548160ff02191690836002811115610ae057fe5b02179055505050565b6000600454905090565b6000806002811115610b0157fe5b600660009054906101000a900460ff166002811115610b1c57fe5b141515610b91576040517f08c379a000000000000000000000000000000000000000000000000000000000815260040180806020018281038252600e8152602001807f496e76616c69642073746174652e00000000000000000000000000000000000081525060200191505060405180910390fd5b600160009054906101000a900473ffffffffffffffffffffffffffffffffffffffff1673ffffffffffffffffffffffffffffffffffffffff168373ffffffffffffffffffffffffffffffffffffffff16141515610c56576040517f08c379a00000000000000000000000000000000000000000000000000000000081526004018080602001828103825260188152602001807f4f6e6c792062757965722063616e2063616c6c2074686973000000000000000081525060200191505060405180910390fd5b60025482141515610ccf576040517f08c379a00000000000000000000000000000000000000000000000000000000081526004018080602001828103825260148152602001807f596f7520676976652077726f6e67206d6f6e657900000000000000000000000081525060200191505060405180910390fd5b6001600660006101000a81548160ff02191690836002811115610cee57fe5b0217905550505050565b60045481565b6000600354905090565b600660009054906101000a900460ff1681565b60008060009054906101000a900473ffffffffffffffffffffffffffffffffffffffff16905090565b828054600181600116156101000203166002900490600052602060002090601f016020900481019282601f10610d8557805160ff1916838001178555610db3565b82800160010185558215610db3579182015b82811115610db2578251825591602001919060010190610d97565b5b509050610dc09190610dc4565b5090565b610de691905b80821115610de2576000816000905550600101610dca565b5090565b9056fea165627a7a72305820afd2275e31ada36edeb47e2ea75021e1b83aa242589c0a00c9eb7393606dbf1d0029a165627a7a7230582055af083a87b8aaec436d553e8fbb182991f5414992d57f400e6bd66791bac52c0029",
  "source": " pragma solidity ^0.5.0;\r\n\r\n import \"./Purchase.sol\";\r\n\r\ncontract TradingSystem {\r\n    struct Goods {\r\n        string owner;   //\r\n        string name;    //\r\n        string information; //\r\n        uint price; //\r\n        uint count; //\r\n    }   \r\n\r\n    struct User {\r\n        string name; //\r\n        string password;    //\r\n        uint goodsCount;    //\r\n        uint purchaseCount; //\r\n        mapping(string => uint) goodsPos;   //\r\n        mapping(string => bool) goodsFlag;  //\r\n    }\r\n\r\n    User[] users;   //\r\n    uint userCount = 0;    //\r\n\r\n    mapping(string => bool) usersFlag;  //\r\n    mapping(string => uint) userPos;    //\r\n    mapping(address => string) addressToUser;   //\r\n    mapping(string => Goods[]) userToGoods; //\r\n    mapping(string => Purchase[]) userToPurchase;   //\r\n    mapping(string => address payable) userToAddress;   //\r\n\r\n    function registOrLogin(string memory name, string memory password) public {\r\n        //\r\n        if(usersFlag[addressToUser[msg.sender]] == true) {\r\n            require(stringsEqual(addressToUser[msg.sender], name) == true, \"Please input correct username!\");\r\n            require(stringsEqual(users[userPos[addressToUser[msg.sender]]].password, password) == true, \"Please input correct password!\");\r\n        }      \r\n        else {\r\n            require(usersFlag[name] == false, \"The name has been used!\");\r\n            users.push(User(name, password, 0, 0));\r\n            userPos[name] = userCount;\r\n            userCount++;\r\n            usersFlag[name] = true;\r\n            addressToUser[msg.sender] = name;\r\n            userToAddress[name] = msg.sender;\r\n        }\r\n    }\r\n\r\n    function getNameByAddress() public view returns (string memory){\r\n        return addressToUser[msg.sender];\r\n    }\r\n\r\n    function getUserBalance() public view returns(uint) {\r\n        return msg.sender.balance;\r\n    }\r\n\r\n    function setPassword(string memory newPassword) public {\r\n        users[userPos[addressToUser[msg.sender]]].password = newPassword;\r\n    }\r\n    \r\n    function getPassword() public view returns (string memory){ \r\n        return users[userPos[addressToUser[msg.sender]]].password;\r\n    }\r\n\r\n    //Goods operation\r\n    function addGoods(string memory name, string memory information, uint price, uint count) public {\r\n        require(users[userPos[addressToUser[msg.sender]]].goodsFlag[name] == false, \"The goods exists!\");\r\n        users[userPos[addressToUser[msg.sender]]].goodsPos[name] = users[userPos[addressToUser[msg.sender]]].goodsCount;\r\n        users[userPos[addressToUser[msg.sender]]].goodsFlag[name] = true;\r\n        users[userPos[addressToUser[msg.sender]]].goodsCount++;\r\n        userToGoods[addressToUser[msg.sender]].push(Goods(addressToUser[msg.sender], name, information, price, count));\r\n    }\r\n\r\n    function deleteGoods(string memory name) public {           \r\n        userToGoods[addressToUser[msg.sender]][users[userPos[addressToUser[msg.sender]]].goodsPos[name]] = userToGoods[addressToUser[msg.sender]][userToGoods[addressToUser[msg.sender]].length - 1];\r\n        users[userPos[addressToUser[msg.sender]]].goodsPos[userToGoods[addressToUser[msg.sender]][(userToGoods[addressToUser[msg.sender]].length - 1)].name] = users[userPos[addressToUser[msg.sender]]].goodsPos[name];\r\n        delete users[userPos[addressToUser[msg.sender]]].goodsPos[name];\r\n        users[userPos[addressToUser[msg.sender]]].goodsFlag[name] = false;\r\n        userToGoods[addressToUser[msg.sender]].length = userToGoods[addressToUser[msg.sender]].length - 1;\r\n        users[userPos[addressToUser[msg.sender]]].goodsCount--;\r\n    }\r\n\r\n    function getUserGoodsCount() public view returns (uint) {\r\n        return users[userPos[addressToUser[msg.sender]]].goodsCount;\r\n    }\r\n\r\n    function getGoods(uint x) public view returns (string memory, string memory, uint, uint, string memory) {\r\n        return (userToGoods[addressToUser[msg.sender]][x].name, userToGoods[addressToUser[msg.sender]][x].information, \r\n            userToGoods[addressToUser[msg.sender]][x].price, userToGoods[addressToUser[msg.sender]][x].count, userToGoods[addressToUser[msg.sender]][x].owner);\r\n    }\r\n\r\n    function buyGoods(string memory name, uint count, string memory owner) public {\r\n        require(userToGoods[owner][users[userPos[owner]].goodsPos[name]].count >= count, \"The count is not enough\");\r\n        userToGoods[owner][users[userPos[owner]].goodsPos[name]].count -= count;\r\n        Purchase newPurchase = new Purchase();\r\n        uint price = userToGoods[owner][users[userPos[addressToUser[msg.sender]]].goodsPos[name]].price;\r\n        newPurchase.setPurchase(userToAddress[owner], msg.sender, name, count, price);\r\n        userToPurchase[addressToUser[msg.sender]].push(newPurchase);\r\n        users[userPos[addressToUser[msg.sender]]].purchaseCount++;\r\n    }\r\n\r\n    function getUserPurchaseCount() public view returns (uint) {\r\n        return users[userPos[addressToUser[msg.sender]]].purchaseCount;\r\n    }\r\n\r\n    function getPurchase(uint x) public view returns (string memory, uint, uint, uint, uint) {\r\n        return (userToPurchase[addressToUser[msg.sender]][x].getName(), userToPurchase[addressToUser[msg.sender]][x].getCount(), \r\n            userToPurchase[addressToUser[msg.sender]][x].getPrice(), userToPurchase[addressToUser[msg.sender]][x].getValue(), userToPurchase[addressToUser[msg.sender]][x].getState());\r\n    }\r\n    \r\n    function getBuyer(uint x) public view returns(address) {\r\n        return userToPurchase[addressToUser[msg.sender]][x].getBuyer();\r\n    }\r\n\r\n    function confirmPurchase(uint x) public payable {\r\n        uint value = msg.value;\r\n        userToPurchase[addressToUser[msg.sender]][x].confirmPurchase(msg.sender, value);  \r\n    }\r\n\r\n    function confirmReceived(uint x) public payable {\r\n        userToPurchase[addressToUser[msg.sender]][x].confirmReceived(msg.sender);\r\n        userToPurchase[addressToUser[msg.sender]][x].getSeller().transfer(userToPurchase[addressToUser[msg.sender]][x].getValue());\r\n    }\r\n\r\n    function getThisBalance() public view returns(uint) {\r\n        return address(this).balance;\r\n    }\r\n \r\n    function stringsEqual(string storage _a, string memory _b) internal view returns (bool) {\r\n\t\tbytes storage a = bytes(_a);\r\n\t\tbytes memory b = bytes(_b);\r\n\t\tif (a.length != b.length)\r\n\t\t\treturn false;\r\n\t\tfor (uint i = 0; i < a.length; i ++)\r\n\t\t\tif (a[i] != b[i])\r\n\t\t\t\treturn false;\r\n\t\treturn true;\r\n\t}\r\n}",
  "sourcePath": "D:////BloackchainPro/TradingSystem/contracts/TradingSystem.sol",
  "compiler": {
    "name": "solc",
    "version": "0.5.0+commit.1d4f565a.Emscripten.clang"
  },
  "schemaVersion": "3.0.0",
  "updatedAt": "2018-12-30T13:07:19.745Z",
  "devdoc": {
    "methods": {}
  },
  "userdoc": {
    "methods": {}
  }
}